:040000008A110D282C
:10000800FE00030E83120313C4000A08C5008A11F8
:10001800832C8A110F288A11C7248A11CF008A11CC
:10002800C8248A11D00083132030840044308A11F8
:100038008F248A1183018A112128C0308316031363
:10004800860080308700F830850083120313071379
:100058008A1173248A118A1132248A110230831278
:100068000313A0003430A1003630A2003130A300C1
:100078003130A4003030A5003030A6003030A70061
:100088003030A8003030A9003030AA003030AB0042
:100098003030AC003030AD003030AE003030AF0022
:1000A8003130B0003030B1003030B2003030B30001
:1000B8003030B4003030B5003030B6003A30CF00C0
:1000C8003030B7003030B8003030B9003030BA00C6
:1000D8003130BB000330BC003130BD008312031344
:1000E8004008031D78287928842830302C06031D01
:1000F8007E287F2882283F30AC008428C001C00AAF
:100108002C08D03EC60008308A119C238A1183121D
:1001180003134008031D912892289D2830302D068E
:10012800031D972898289B283F30AD009D28C001C3
:10013800C00A2D08D03EC60007308A119C238A11B8
:10014800831203134008031DAA28AB28B6283030B1
:100158002E06031DB028B128B4283F30AE00B628BB
:10016800C001C00A2E08D03EC60006308A119C2362
:100178008A11831203134008031DC328C428CF28FB
:1001880030302F06031DC928CA28CD283F30AF00BC
:10019800CF28C001C00A2F08D03EC60005308A11FA
:1001A8009C238A11831203134008031DDC28DD28D1
:1001B800E82830303006031DE228E328E6283F30DF
:1001C800B000E828C001C00A3008D03EC60004309C
:1001D8008A119C238A11831203134008031DF528F2
:1001E800F628012930303106031DFB28FC28FF289A
:1001F8003F30B1000129C001C00A3108D03EC60015
:1002080003308A119C238A11831203134008031DAB
:100218000E290F291A2930303206031D14291529F1
:1002280018293F30B2001A29C001C00A3208D03E4E
:10023800C60002308A119C238A11831203134008D6
:10024800031D27292829332930303306031D2D297A
:100258002E2931293F30B3003329C001C00A3308A1
:10026800D03EC60001308A119C238A110F308312B8
:100278000313C60008308A11E7238A110F3083124E
:100288000313C60007308A11E7238A118312031368
:100298003408D03EC60006308A11E7238A1183123B
:1002A8000313C00130303706031D5B295C295F2921
:1002B8003F30B7006129C001C00A3708D03EC600E8
:1002C80001308A11E7238A11831203134008031DA2
:1002D8006E296F297A2930303806031D742975294B
:1002E80078293F30B8007A29C001C00A3808D03EC2
:1002F800C60002308A11E7238A11831203134008CB
:10030800031D87298829932930303906031D8D2933
:100318008E2991293F30B9009329C001C00A3908B4
:10032800D03EC60003308A11E7238A1183120313D3
:100338004008031DA029A129AC2930303A06031D25
:10034800A629A729AA293F30BA00AC29C001C00AAA
:100358003A08D03EC60004308A11E7238A11831276
:1003680003133B08D03EC60005308A11E7238A11E3
:10037800831203134208031DC229C329D029CA299D
:100388008A1149238A1183120313C30002304306DA
:10039800031DCF29D029C4298A1149238A11831220
:1003A8000313C3004308A1008A1149238A11831249
:1003B8000313C3004308A2008A1149238A11831238
:1003C8000313C3004308A3008A1149238A11831227
:1003D8000313C3004308A4008A1149238A11831216
:1003E8000313C3004308A5008A1149238A11831205
:1003F8000313C3004308A6008A1149238A118312F4
:100408000313C3004308A7008A1149238A118312E2
:100418000313C3004308A8008A1149238A118312D1
:100428000313C3004308A9008A1149238A118312C0
:100438000313C3004308AA008A1149238A118312AF
:100448000313C3004308AB008A1149238A1183129E
:100458000313C3004308AC008A1149238A1183128D
:100468000313C3004308AD008A1149238A1183127C
:100478000313C3004308AE008A1149238A1183126B
:100488000313C3004308AF008A1149238A1183125A
:100498000313C3004308B0008A1149238A11831249
:1004A8000313C3004308B1008A1149238A11831238
:1004B8000313C3004308B2008A1149238A11831227
:1004C8000313C3004308B3008A1149238A11831216
:1004D8000313C3004308B4008A1149238A11831205
:1004E8000313C3004308B5008A1149238A118312F4
:1004F8000313C3004308B6008A1149238A118312E3
:100508000313C3004308B7008A1149238A118312D1
:100518000313C3004308B8008A1149238A118312C0
:100528000313C3004308B9008A1149238A118312AF
:100538000313C3004308BA008A1149238A1183129E
:100548000313C3004308BB008A1149238A1183128D
:100558000313C3004308BC008A1149238A1183127C
:100568000313C3004308BD000130FF007F08C20722
:100578001E304206031DC12AC22AC32AC201BF0176
:10058800BE01BE0A3E08203E8400831300083F06D1
:10059800BF000130FF007F08BE071D303E02031C6C
:1005A800D62AD72AC62A3D083F06031DDC2ADD2A9B
:1005B800E22A06308A11E9228A11722815308A1136
:1005C800E9228A1172288A110D2883120313C800A0
:1005D800C70107170E3083120313C600C60BF22A91
:1005E80083120313C9014808C600490AFD2A0310EB
:1005F800C60CFF3E031DFB2A461C032B072B831248
:10060800031307170A2B8312031307134808C6009E
:10061800490A102B0310C60CFF3E031D0E2B461C67
:10062800162B182B0130192B0030FF007F08C70646
:100638000E3083120313C600C60B202B0130FF00B7
:100648007F0883120313C90708304902031C2D2BA6
:100658002E2BF72A47080319322B362B8312031344
:100668000717392B8312031307130E308312031352
:10067800C600C60B3D2B8312031307130E308312DB
:100688000313C600C60B462B080083120313C701C9
:10069800C801871F502B512B4D2B06308312031393
:1006A800C600C60B552B582B83120313C9010E30F5
:1006B80083120313C600C60B5F2B031083120313A8
:1006C800871F0314003003180130C600490A6E2B37
:1006D8000310C60DFF3E031D6C2B4608FF007F0864
:1006E800C7040310871F0314003003180130FF00EC
:1006F8007F08C8060130FF007F08C9070830490293
:10070800031C872B882B5B2B0E3083120313C60028
:10071800C60B8C2B8312031307080E3083120313A6
:10072800C600C60B952B8312031307084708080059
:1007380083120313CD004608C700C8014D08C9003D
:10074800CA014908CA00C90147084904CB0048083A
:100758004A04CC00CE010030C7008030C8004E0AE1
:10076800B82B0310C80CC70CFF3E031DB52B4B0854
:100778004705C9004C084805CA0049084A04031936
:10078800C62BC72BCB2B8A11A3248A11CE2B8A11F7
:100798009F248A118A11AB248A118A11A7248A11ED
:1007A8000130FF007F0883120313CE0710304E027A
:1007B800031CDF2BE02BAF2B8A119B248A118A1193
:1007C80097248A11080083120313CD004608C70036
:1007D800C8014D08C900CA014908CA00C90147082B
:1007E8004904CB0048084A04CC00CE010030C700B9
:1007F8008030C8004E0A032C0310C80CC70CFF3EFB
:10080800031D002C4B084705C9004C084805CA00C1
:1008180049084A040319112C122C162C8A11BB24DE
:100828008A11192C8A11B7248A118A11C3248A11B2
:100838008A11BF248A110130FF007F088312031335
:10084800CE0710304E02031C2A2C2B2CFA2B8A11AF
:10085800B3248A118A11AF248A1108000F30831239
:100868000313C6000A308A119C238A110F308312A1
:100878000313C6000A308A11E7238A11FF30831256
:100888000313C60009308A119C238A11FF30831292
:100898000313C60009308A11E7238A11073083122F
:1008A8000313C6000B308A119C238A110730831268
:1008B8000313C6000B308A11E7238A11831203132E
:1008C800C601C60A0C308A119C238A1183120313AD
:1008D800C601C60A0C308A11E7238A110800831260
:1008E8000313810183160313811281110108F8395A
:1008F800023881008B120B118B170B1708000B1D88
:10090800862C872C882C0B1145088A00440E8300FE
:10091800FE0E7E0E090064008001840A0406031995
:1009280000340406902C83120313871008008312E6
:100938000313871408008312031307100800831297
:100948000313071408008312031307110800831206
:100958000313071508008312031385100800831278
:10096800031385140800831203130510080083126B
:1009780003130514080083120313051108008312DA
:0A0988000313051508003034303465
:02400E00F23F7F
:00000001FF
