:040000008A110D282C
:10000800FE00030E83120313C4000A08C5008A11F8
:10001800442D8A110F288A1158258A11D3008A1174
:1000280059258A11D4008A115A258A11D5008A11B6
:100038005B258A11D6008A115C258A11D7008A119E
:100048005D258A11D8008A115E258A11D90083138B
:100058002030840044308A1150258A1183018A1186
:100068003528C03083160313860080308700F830A7
:1000780085008312031307138A1134258A118A1104
:10008800F3248A11023083120313A0003430A10034
:100098003630A2003130A3003130A4003030A50042
:1000A8003030A6003030A7003030A8003030A9002A
:1000B8003030AA003030AB003030AC003030AD000A
:1000C8003030AE003030AF003130B0003030B100E9
:1000D8003030B2003030B3003030B4003030B500CA
:1000E8003030B6003030D9003030B7003030B8008A
:1000F8003030B9003030BA003130BB000330BC00BA
:100108003130BD004008031D8A288B2896283030DE
:100118002C06031D9028912894283F30AC0096287F
:10012800C001C00A2C08D03EC60008308A115D24E0
:100138008A11831203134008031DA328A428AF289B
:1001480030302D06031DA928AA28AD283F30AD0060
:10015800AF28C001C00A2D08D03EC60007308A115A
:100168005D248A11831203134008031DBC28BD288F
:10017800C82830302E06031DC228C328C6283F30A1
:10018800AE00C828C001C00A2E08D03EC6000630FE
:100198008A115D248A11831203134008031DD52890
:1001A800D628E12830302F06031DDB28DC28DF287D
:1001B8003F30AF00E128C001C00A2F08D03EC6007A
:1001C80005308A115D248A11831203134008031D28
:1001D800EE28EF28FA2830303006031DF428F528D9
:1001E800F8283F30B000FA28C001C00A3008D03ED5
:1001F800C60004308A115D248A1183120313400853
:10020800031D07290829132930303106031D0D293C
:100218000E2911293F30B1001329C001C00A310845
:10022800D03EC60003308A115D248A11831203135D
:100238004008031D202921292C2930303206031DAE
:10024800262927292A293F30B2002C29C001C00AB3
:100258003208D03EC60002308A115D248A1183120A
:1002680003134008031D39293A294529303033063C
:10027800031D3F29402943293F30B3004529C001C8
:10028800C00A3308D03EC60001308A115D248A11A5
:100298000F3083120313C60008308A11A8248A116C
:1002A8000F3083120313C60007308A11A8248A115D
:1002B800831203135808D03EC60006308A11A824BA
:1002C8008A1183120313C00130305906031D6D29AA
:1002D8006E2971293F30B7007329C001C00A370859
:1002E800D03EC60001308A11A8248A118312031354
:1002F8004008031D802981298C2930303806031DC8
:10030800862987298A293F30B8008C29C001C00A6C
:100318003808D03EC60002308A11A8248A118312F8
:1003280003134008031D99299A29A5293030390655
:10033800031D9F29A029A3293F30B900A529C00181
:10034800C00A3908D03EC60003308A11A8248A1191
:10035800831203134008031DB229B329BE29303084
:100368003A06031DB829B929BC293F30BA00BE296D
:10037800C001C00A3A08D03EC60004308A11A82439
:100388008A11831203133B08D03EC60005308A1138
:10039800A8248A11831203134208031DD429D529DE
:1003A800E229DC298A110A248A1183120313C30063
:1003B80002304306031DE129E229D6298A110A24BD
:1003C8008A1183120313C3004308A1008A110A2467
:1003D8008A1183120313C3004308A2008A110A2456
:1003E8008A1183120313C3004308A3008A110A2445
:1003F8008A1183120313C3004308A4008A110A2434
:100408008A1183120313C3004308A5008A110A2422
:100418008A1183120313C3004308A6008A110A2411
:100428008A1183120313C3004308A7008A110A2400
:100438008A1183120313C3004308A8008A110A24EF
:100448008A1183120313C3004308A9008A110A24DE
:100458008A1183120313C3004308AA008A110A24CD
:100468008A1183120313C3004308AB008A110A24BC
:100478008A1183120313C3004308AC008A110A24AB
:100488008A1183120313C3004308AD004308D60042
:100498008A110A248A1183120313C3004308AE0089
:1004A8008A110A248A1183120313C3004308AF0078
:1004B8008A110A248A1183120313C3004308B00067
:1004C8008A110A248A1183120313C3004308B10056
:1004D8008A110A248A1183120313C3004308B20045
:1004E8008A110A248A1183120313C3004308B30034
:1004F8008A110A248A1183120313C3004308B40023
:100508008A110A248A1183120313C3004308B50011
:100518008A110A248A1183120313C3004308B60000
:100528008A110A248A1183120313C3004308B700EF
:100538008A110A248A1183120313C3004308B800DE
:100548004308D4008A110A248A1183120313C300B2
:100558004308B9008A110A248A1183120313C300BD
:100568004308BA008A110A248A1183120313C300AC
:100578004308BB008A110A248A1183120313C3009B
:100588004308BC008A110A248A1183120313C3008A
:100598004308BD000130FF007F08C2071E30420635
:1005A800031DD72AD82AD92AC201BF01BE01BE0A13
:1005B8001D303E02031CE12AE22AE32AEF2A3E0804
:1005C800203E8400831300083F06BF000130FF006F
:1005D8007F08BE07DC2A3D083F06031DF42AF52ADA
:1005E800FA2A06308A11AA238A11FE2A15308A119E
:1005F800AA238A113130831203132306031D052B06
:10060800062B282B5608CF00D0015008D2005708D7
:100618004F02D100031CD203D21F132B142B282BFB
:1006280039305706031D192B1A2B282B0130FF00D0
:100638007F08D8073130D3003A305806031D252BE0
:10064800262B282B3030D80031302306031D2D2BC4
:100658002E2B502B5408CF00D0015008D20055083B
:100668004F02D100031CD203D21F3B2B3C2B502B33
:1006780039305506031D412B422B502B0130FF000A
:100688007F08D9073130D3003A305906031D4D2B66
:100698004E2B502B3030D9005608D7005408D500BF
:1006A80030305306031D592B5A2BA72B1E302D060D
:1006B800031D5F2B602BA72B1E302E06031D652BF9
:1006C800662BA72B1E302F06031D6B2B6C2BA72B1D
:1006D8001E303006031D712B722BA72B1E303106DE
:1006E800031D772B782BA72B1E303206031D7D2B7D
:1006F8007E2BA72B1E303306031D832B842BA72BA1
:100708001E303406031D892B8A2BA72B1E30380672
:10071800031D8F2B902BA72B1E303906031D952BFD
:10072800962BA72B1E303A06031D9B2B9C2BA72B21
:100738001E303B06031DA12BA22BA72B3030D8005F
:100748003030D900862886288A110D288312031391
:10075800C800C70107170E3083120313C600C60B63
:10076800B32B83120313C9014808C600490ABE2BDC
:100778000310C60CFF3E031DBC2B461CC42BC82B04
:10078800831203130717CB2B83120313071348088D
:10079800C600490AD12B0310C60CFF3E031DCF2B00
:1007A800461CD72BD92B0130DA2B0030FF007F08ED
:1007B800C7060E3083120313C600C60BE12B0130A7
:1007C800FF007F0883120313C90708304902031C7E
:1007D800EE2BEF2BB82B47080319F32BF72B8312BB
:1007E80003130717FA2B8312031307130E30831210
:1007F8000313C600C60BFE2B8312031307130E3018
:1008080083120313C600C60B072C080083120313B8
:10081800C701C801871F112C122C0E2C0630831219
:100828000313C600C60B162C192C83120313C90117
:100838000E3083120313C600C60B202C031083123C
:100848000313871F0314003003180130C600490A38
:100858002F2C0310C60DFF3E031D2D2C4608FF004C
:100868007F08C7040310871F0314003003180130E2
:10087800FF007F08C8060130FF007F08C90708305D
:100888004902031C482C492C1C2C0E3083120313DC
:10089800C600C60B4D2C8312031307080E308312B3
:1008A8000313C600C60B562C831203130708470808
:1008B800080083120313CD004608C700C8014D087D
:1008C800C900CA014908CA00C90147084904CB0040
:1008D80048084A04CC00CE010030C7008030C80068
:1008E8004E0A792C0310C80CC70CFF3E031D762C4A
:1008F8004B084705C9004C084805CA0049084A047E
:100908000319872C882C8C2C8A116B258A118F2C23
:100918008A1167258A118A1173258A118A116F2510
:100928008A110130FF007F0883120313CE071030AD
:100938004E02031CA02CA12C702C8A1163258A114D
:100948008A115F258A11080083120313CD00460817
:10095800C700C8014D08C900CA014908CA00C90131
:1009680047084904CB0048084A04CC00CE010030AF
:10097800C7008030C8004E0AC42C0310C80CC70C2E
:10098800FF3E031DC12C4B084705C9004C0848050C
:10099800CA0049084A040319D22CD32CD72C8A112F
:1009A80083258A11DA2C8A117F258A118A118B25D1
:1009B8008A118A1187258A110130FF007F08831266
:1009C8000313CE0710304E02031CEB2CEC2CBB2C6F
:1009D8008A117B258A118A1177258A1108000F3020
:1009E80083120313C6000A308A115D248A110F305E
:1009F80083120313C6000A308A11A8248A11FF3013
:100A080083120313C60009308A115D248A11FF304E
:100A180083120313C60009308A11A8248A110730EB
:100A280083120313C6000B308A115D248A11073024
:100A380083120313C6000B308A11A8248A1183126B
:100A48000313C601C60A0C308A115D248A11831269
:100A58000313C601C60A0C308A11A8248A1108009B
:100A68008312031381018316031381128111010874
:100A7800F839023881008B120B118B170B170800FD
:100A88000B1D472D482D492D0B1145088A00440E92
:100A98008300FE0E7E0E090064008001840A0406AD
:100AA800031900340406512D3034303430343034D6
:100AB8003034303430348312031387100800831223
:100AC8000313871408008312031307100800831206
:100AD8000313071408008312031307110800831275
:100AE80003130715080083120313851008008312E7
:100AF80003138514080083120313051008008312DA
:100B08000313051408008312031305110800831248
:060B18000313051508009F
:02400E00F23F7F
:00000001FF
